{"abi":[{"type":"function","name":"count","inputs":[],"outputs":[{"name":"","type":"uint256","internalType":"uint256"}],"stateMutability":"view"},{"type":"function","name":"latest","inputs":[],"outputs":[{"name":"","type":"tuple","internalType":"struct OrbitalSentinelRegistry.Record","components":[{"name":"snapshotHash","type":"bytes32","internalType":"bytes32"},{"name":"riskLevel","type":"string","internalType":"string"},{"name":"ts","type":"uint256","internalType":"uint256"},{"name":"recorder","type":"address","internalType":"address"}]}],"stateMutability":"view"},{"type":"function","name":"recordHealth","inputs":[{"name":"snapshotHash","type":"bytes32","internalType":"bytes32"},{"name":"riskLevel","type":"string","internalType":"string"}],"outputs":[],"stateMutability":"nonpayable"},{"type":"function","name":"records","inputs":[{"name":"","type":"uint256","internalType":"uint256"}],"outputs":[{"name":"snapshotHash","type":"bytes32","internalType":"bytes32"},{"name":"riskLevel","type":"string","internalType":"string"},{"name":"ts","type":"uint256","internalType":"uint256"},{"name":"recorder","type":"address","internalType":"address"}],"stateMutability":"view"},{"type":"event","name":"HealthRecorded","inputs":[{"name":"snapshotHash","type":"bytes32","indexed":true,"internalType":"bytes32"},{"name":"riskLevel","type":"string","indexed":false,"internalType":"string"},{"name":"ts","type":"uint256","indexed":false,"internalType":"uint256"}],"anonymous":false}],"bytecode":{"object":"0x608060405234801561000f575f80fd5b50610cf98061001d5f395ff3fe608060405234801561000f575f80fd5b506004361061004a575f3560e01c806306661abd1461004e578063344610671461006c578063441b20551461009f57806352bfe789146100bb575b5f80fd5b6100566100d9565b60405161006391906104f0565b60405180910390f35b6100866004803603810190610081919061053b565b6100e4565b6040516100969493929190610647565b60405180910390f35b6100b960048036038101906100b4919061071c565b6101c3565b005b6100c3610315565b6040516100d0919061084e565b60405180910390f35b5f8080549050905090565b5f81815481106100f2575f80fd5b905f5260205f2090600402015f91509050805f0154908060010180546101179061089b565b80601f01602080910402602001604051908101604052809291908181526020018280546101439061089b565b801561018e5780601f106101655761010080835404028352916020019161018e565b820191905f5260205f20905b81548152906001019060200180831161017157829003601f168201915b505050505090806002015490806003015f9054906101000a900473ffffffffffffffffffffffffffffffffffffffff16905084565b5f604051806080016040528085815260200184848080601f0160208091040260200160405190810160405280939291908181526020018383808284375f81840152601f19601f8201169050808301925050505050505081526020014281526020013373ffffffffffffffffffffffffffffffffffffffff16815250908060018154018082558091505060019003905f5260205f2090600402015f909190919091505f820151815f015560208201518160010190816102819190610a95565b50604082015181600201556060820151816003015f6101000a81548173ffffffffffffffffffffffffffffffffffffffff021916908373ffffffffffffffffffffffffffffffffffffffff1602179055505050827f7d183023ee6e130fdc41e3bebf72a993fb3515289eefe8471a1a97357d9a36a683834260405161030893929190610b9e565b60405180910390a2505050565b61031d61049a565b5f808054905011610363576040517f08c379a000000000000000000000000000000000000000000000000000000000815260040161035a90610c18565b60405180910390fd5b5f60015f805490506103759190610c63565b8154811061038657610385610c96565b5b905f5260205f2090600402016040518060800160405290815f82015481526020016001820180546103b69061089b565b80601f01602080910402602001604051908101604052809291908181526020018280546103e29061089b565b801561042d5780601f106104045761010080835404028352916020019161042d565b820191905f5260205f20905b81548152906001019060200180831161041057829003601f168201915b5050505050815260200160028201548152602001600382015f9054906101000a900473ffffffffffffffffffffffffffffffffffffffff1673ffffffffffffffffffffffffffffffffffffffff1673ffffffffffffffffffffffffffffffffffffffff1681525050905090565b60405180608001604052805f8019168152602001606081526020015f81526020015f73ffffffffffffffffffffffffffffffffffffffff1681525090565b5f819050919050565b6104ea816104d8565b82525050565b5f6020820190506105035f8301846104e1565b92915050565b5f80fd5b5f80fd5b61051a816104d8565b8114610524575f80fd5b50565b5f8135905061053581610511565b92915050565b5f602082840312156105505761054f610509565b5b5f61055d84828501610527565b91505092915050565b5f819050919050565b61057881610566565b82525050565b5f81519050919050565b5f82825260208201905092915050565b5f5b838110156105b557808201518184015260208101905061059a565b5f8484015250505050565b5f601f19601f8301169050919050565b5f6105da8261057e565b6105e48185610588565b93506105f4818560208601610598565b6105fd816105c0565b840191505092915050565b5f73ffffffffffffffffffffffffffffffffffffffff82169050919050565b5f61063182610608565b9050919050565b61064181610627565b82525050565b5f60808201905061065a5f83018761056f565b818103602083015261066c81866105d0565b905061067b60408301856104e1565b6106886060830184610638565b95945050505050565b61069a81610566565b81146106a4575f80fd5b50565b5f813590506106b581610691565b92915050565b5f80fd5b5f80fd5b5f80fd5b5f8083601f8401126106dc576106db6106bb565b5b8235905067ffffffffffffffff8111156106f9576106f86106bf565b5b602083019150836001820283011115610715576107146106c3565b5b9250929050565b5f805f6040848603121561073357610732610509565b5b5f610740868287016106a7565b935050602084013567ffffffffffffffff8111156107615761076061050d565b5b61076d868287016106c7565b92509250509250925092565b61078281610566565b82525050565b5f82825260208201905092915050565b5f6107a28261057e565b6107ac8185610788565b93506107bc818560208601610598565b6107c5816105c0565b840191505092915050565b6107d9816104d8565b82525050565b6107e881610627565b82525050565b5f608083015f8301516108035f860182610779565b506020830151848203602086015261081b8282610798565b915050604083015161083060408601826107d0565b50606083015161084360608601826107df565b508091505092915050565b5f6020820190508181035f83015261086681846107ee565b905092915050565b7f4e487b71000000000000000000000000000000000000000000000000000000005f52602260045260245ffd5b5f60028204905060018216806108b257607f821691505b6020821081036108c5576108c461086e565b5b50919050565b7f4e487b71000000000000000000000000000000000000000000000000000000005f52604160045260245ffd5b5f819050815f5260205f209050919050565b5f6020601f8301049050919050565b5f82821b905092915050565b5f600883026109547fffffffffffffffffffffffffffffffffffffffffffffffffffffffffffffffff82610919565b61095e8683610919565b95508019841693508086168417925050509392505050565b5f819050919050565b5f61099961099461098f846104d8565b610976565b6104d8565b9050919050565b5f819050919050565b6109b28361097f565b6109c66109be826109a0565b848454610925565b825550505050565b5f90565b6109da6109ce565b6109e58184846109a9565b505050565b5b81811015610a08576109fd5f826109d2565b6001810190506109eb565b5050565b601f821115610a4d57610a1e816108f8565b610a278461090a565b81016020851015610a36578190505b610a4a610a428561090a565b8301826109ea565b50505b505050565b5f82821c905092915050565b5f610a6d5f1984600802610a52565b1980831691505092915050565b5f610a858383610a5e565b9150826002028217905092915050565b610a9e8261057e565b67ffffffffffffffff811115610ab757610ab66108cb565b5b610ac1825461089b565b610acc828285610a0c565b5f60209050601f831160018114610afd575f8415610aeb578287015190505b610af58582610a7a565b865550610b5c565b601f198416610b0b866108f8565b5f5b82811015610b3257848901518255600182019150602085019450602081019050610b0d565b86831015610b4f5784890151610b4b601f891682610a5e565b8355505b6001600288020188555050505b505050505050565b828183375f83830152505050565b5f610b7d8385610588565b9350610b8a838584610b64565b610b93836105c0565b840190509392505050565b5f6040820190508181035f830152610bb7818587610b72565b9050610bc660208301846104e1565b949350505050565b7f4e6f207265636f726473207965740000000000000000000000000000000000005f82015250565b5f610c02600e83610588565b9150610c0d82610bce565b602082019050919050565b5f6020820190508181035f830152610c2f81610bf6565b9050919050565b7f4e487b71000000000000000000000000000000000000000000000000000000005f52601160045260245ffd5b5f610c6d826104d8565b9150610c78836104d8565b9250828203905081811115610c9057610c8f610c36565b5b92915050565b7f4e487b71000000000000000000000000000000000000000000000000000000005f52603260045260245ffdfea2646970667358221220de37bb330066adaf65f346a59dc61d390ee451793588fe34fd89c3005c88243464736f6c63430008180033","linkReferences":{}},"methodIdentifiers":{"count()":"06661abd","latest()":"52bfe789","recordHealth(bytes32,string)":"441b2055","records(uint256)":"34461067"},"id":0}