{"abi":[{"type":"constructor","inputs":[],"stateMutability":"nonpayable"},{"type":"function","name":"count","inputs":[],"outputs":[{"name":"","type":"uint256","internalType":"uint256"}],"stateMutability":"view"},{"type":"function","name":"latest","inputs":[],"outputs":[{"name":"","type":"tuple","internalType":"struct OrbitalSentinelRegistry.Record","components":[{"name":"snapshotHash","type":"bytes32","internalType":"bytes32"},{"name":"riskLevel","type":"string","internalType":"string"},{"name":"ts","type":"uint256","internalType":"uint256"},{"name":"recorder","type":"address","internalType":"address"}]}],"stateMutability":"view"},{"type":"function","name":"owner","inputs":[],"outputs":[{"name":"","type":"address","internalType":"address"}],"stateMutability":"view"},{"type":"function","name":"recordHealth","inputs":[{"name":"snapshotHash","type":"bytes32","internalType":"bytes32"},{"name":"riskLevel","type":"string","internalType":"string"}],"outputs":[],"stateMutability":"nonpayable"},{"type":"function","name":"recorded","inputs":[{"name":"","type":"bytes32","internalType":"bytes32"}],"outputs":[{"name":"","type":"bool","internalType":"bool"}],"stateMutability":"view"},{"type":"function","name":"records","inputs":[{"name":"","type":"uint256","internalType":"uint256"}],"outputs":[{"name":"snapshotHash","type":"bytes32","internalType":"bytes32"},{"name":"riskLevel","type":"string","internalType":"string"},{"name":"ts","type":"uint256","internalType":"uint256"},{"name":"recorder","type":"address","internalType":"address"}],"stateMutability":"view"},{"type":"function","name":"transferOwnership","inputs":[{"name":"newOwner","type":"address","internalType":"address"}],"outputs":[],"stateMutability":"nonpayable"},{"type":"event","name":"HealthRecorded","inputs":[{"name":"snapshotHash","type":"bytes32","indexed":true,"internalType":"bytes32"},{"name":"riskLevel","type":"string","indexed":false,"internalType":"string"},{"name":"ts","type":"uint256","indexed":false,"internalType":"uint256"}],"anonymous":false},{"type":"event","name":"OwnershipTransferred","inputs":[{"name":"previousOwner","type":"address","indexed":true,"internalType":"address"},{"name":"newOwner","type":"address","indexed":true,"internalType":"address"}],"anonymous":false},{"type":"error","name":"AlreadyRecorded","inputs":[]},{"type":"error","name":"EmptyRiskLevel","inputs":[]},{"type":"error","name":"NotOwner","inputs":[]}],"bytecode":{"object":"0x608060405234801561001057600080fd5b50336000806101000a81548173ffffffffffffffffffffffffffffffffffffffff021916908373ffffffffffffffffffffffffffffffffffffffff1602179055503373ffffffffffffffffffffffffffffffffffffffff16600073ffffffffffffffffffffffffffffffffffffffff167f8be0079c531659141344cd1fd0a4f28419497f9722a3daafe3b4186f6b6457e060405160405180910390a36111a0806100bb6000396000f3fe608060405234801561001057600080fd5b506004361061007d5760003560e01c806352bfe7891161005b57806352bfe789146100ef5780638da5cb5b1461010d578063d63997901461012b578063f2fde38b1461015b5761007d565b806306661abd1461008257806334461067146100a0578063441b2055146100d3575b600080fd5b61008a610177565b6040516100979190610879565b60405180910390f35b6100ba60048036038101906100b591906108ca565b610184565b6040516100ca94939291906109e1565b60405180910390f35b6100ed60048036038101906100e89190610abe565b61026c565b005b6100f761050c565b6040516101049190610bf8565b60405180910390f35b610115610699565b6040516101229190610c1a565b60405180910390f35b61014560048036038101906101409190610c35565b6106bd565b6040516101529190610c7d565b60405180910390f35b61017560048036038101906101709190610cc4565b6106dd565b005b6000600180549050905090565b6001818154811061019457600080fd5b90600052602060002090600402016000915090508060000154908060010180546101bd90610d20565b80601f01602080910402602001604051908101604052809291908181526020018280546101e990610d20565b80156102365780601f1061020b57610100808354040283529160200191610236565b820191906000526020600020905b81548152906001019060200180831161021957829003601f168201915b5050505050908060020154908060030160009054906101000a900473ffffffffffffffffffffffffffffffffffffffff16905084565b60008054906101000a900473ffffffffffffffffffffffffffffffffffffffff1673ffffffffffffffffffffffffffffffffffffffff163373ffffffffffffffffffffffffffffffffffffffff16146102f1576040517f30cd747100000000000000000000000000000000000000000000000000000000815260040160405180910390fd5b6002600084815260200190815260200160002060009054906101000a900460ff1615610349576040517f103b4afe00000000000000000000000000000000000000000000000000000000815260040160405180910390fd5b60008282905003610386576040517f5f3f70dd00000000000000000000000000000000000000000000000000000000815260040160405180910390fd5b60016002600085815260200190815260200160002060006101000a81548160ff0219169083151502179055506001604051806080016040528085815260200184848080601f016020809104026020016040519081016040528093929190818152602001838380828437600081840152601f19601f8201169050808301925050505050505081526020014281526020013373ffffffffffffffffffffffffffffffffffffffff1681525090806001815401808255809150506001900390600052602060002090600402016000909190919091506000820151816000015560208201518160010190816104779190610f2c565b506040820151816002015560608201518160030160006101000a81548173ffffffffffffffffffffffffffffffffffffffff021916908373ffffffffffffffffffffffffffffffffffffffff1602179055505050827f7d183023ee6e130fdc41e3bebf72a993fb3515289eefe8471a1a97357d9a36a68383426040516104ff9392919061103a565b60405180910390a2505050565b61051461081f565b60006001805490501161055c576040517f08c379a0000000000000000000000000000000000000000000000000000000008152600401610553906110b8565b60405180910390fd5b600180808054905061056e9190611107565b8154811061057f5761057e61113b565b5b9060005260206000209060040201604051806080016040529081600082015481526020016001820180546105b290610d20565b80601f01602080910402602001604051908101604052809291908181526020018280546105de90610d20565b801561062b5780601f106106005761010080835404028352916020019161062b565b820191906000526020600020905b81548152906001019060200180831161060e57829003601f168201915b50505050508152602001600282015481526020016003820160009054906101000a900473ffffffffffffffffffffffffffffffffffffffff1673ffffffffffffffffffffffffffffffffffffffff1673ffffffffffffffffffffffffffffffffffffffff1681525050905090565b60008054906101000a900473ffffffffffffffffffffffffffffffffffffffff1681565b60026020528060005260406000206000915054906101000a900460ff1681565b60008054906101000a900473ffffffffffffffffffffffffffffffffffffffff1673ffffffffffffffffffffffffffffffffffffffff163373ffffffffffffffffffffffffffffffffffffffff1614610762576040517f30cd747100000000000000000000000000000000000000000000000000000000815260040160405180910390fd5b8073ffffffffffffffffffffffffffffffffffffffff1660008054906101000a900473ffffffffffffffffffffffffffffffffffffffff1673ffffffffffffffffffffffffffffffffffffffff167f8be0079c531659141344cd1fd0a4f28419497f9722a3daafe3b4186f6b6457e060405160405180910390a3806000806101000a81548173ffffffffffffffffffffffffffffffffffffffff021916908373ffffffffffffffffffffffffffffffffffffffff16021790555050565b6040518060800160405280600080191681526020016060815260200160008152602001600073ffffffffffffffffffffffffffffffffffffffff1681525090565b6000819050919050565b61087381610860565b82525050565b600060208201905061088e600083018461086a565b92915050565b600080fd5b600080fd5b6108a781610860565b81146108b257600080fd5b50565b6000813590506108c48161089e565b92915050565b6000602082840312156108e0576108df610894565b5b60006108ee848285016108b5565b91505092915050565b6000819050919050565b61090a816108f7565b82525050565b600081519050919050565b600082825260208201905092915050565b60005b8381101561094a57808201518184015260208101905061092f565b60008484015250505050565b6000601f19601f8301169050919050565b600061097282610910565b61097c818561091b565b935061098c81856020860161092c565b61099581610956565b840191505092915050565b600073ffffffffffffffffffffffffffffffffffffffff82169050919050565b60006109cb826109a0565b9050919050565b6109db816109c0565b82525050565b60006080820190506109f66000830187610901565b8181036020830152610a088186610967565b9050610a17604083018561086a565b610a2460608301846109d2565b95945050505050565b610a36816108f7565b8114610a4157600080fd5b50565b600081359050610a5381610a2d565b92915050565b600080fd5b600080fd5b600080fd5b60008083601f840112610a7e57610a7d610a59565b5b8235905067ffffffffffffffff811115610a9b57610a9a610a5e565b5b602083019150836001820283011115610ab757610ab6610a63565b5b9250929050565b600080600060408486031215610ad757610ad6610894565b5b6000610ae586828701610a44565b935050602084013567ffffffffffffffff811115610b0657610b05610899565b5b610b1286828701610a68565b92509250509250925092565b610b27816108f7565b82525050565b600082825260208201905092915050565b6000610b4982610910565b610b538185610b2d565b9350610b6381856020860161092c565b610b6c81610956565b840191505092915050565b610b8081610860565b82525050565b610b8f816109c0565b82525050565b6000608083016000830151610bad6000860182610b1e565b5060208301518482036020860152610bc58282610b3e565b9150506040830151610bda6040860182610b77565b506060830151610bed6060860182610b86565b508091505092915050565b60006020820190508181036000830152610c128184610b95565b905092915050565b6000602082019050610c2f60008301846109d2565b92915050565b600060208284031215610c4b57610c4a610894565b5b6000610c5984828501610a44565b91505092915050565b60008115159050919050565b610c7781610c62565b82525050565b6000602082019050610c926000830184610c6e565b92915050565b610ca1816109c0565b8114610cac57600080fd5b50565b600081359050610cbe81610c98565b92915050565b600060208284031215610cda57610cd9610894565b5b6000610ce884828501610caf565b91505092915050565b7f4e487b7100000000000000000000000000000000000000000000000000000000600052602260045260246000fd5b60006002820490506001821680610d3857607f821691505b602082108103610d4b57610d4a610cf1565b5b50919050565b7f4e487b7100000000000000000000000000000000000000000000000000000000600052604160045260246000fd5b60008190508160005260206000209050919050565b60006020601f8301049050919050565b600082821b905092915050565b600060088302610de27fffffffffffffffffffffffffffffffffffffffffffffffffffffffffffffffff82610da5565b610dec8683610da5565b95508019841693508086168417925050509392505050565b6000819050919050565b6000610e29610e24610e1f84610860565b610e04565b610860565b9050919050565b6000819050919050565b610e4383610e0e565b610e57610e4f82610e30565b848454610db2565b825550505050565b600090565b610e6c610e5f565b610e77818484610e3a565b505050565b5b81811015610e9b57610e90600082610e64565b600181019050610e7d565b5050565b601f821115610ee057610eb181610d80565b610eba84610d95565b81016020851015610ec9578190505b610edd610ed585610d95565b830182610e7c565b50505b505050565b600082821c905092915050565b6000610f0360001984600802610ee5565b1980831691505092915050565b6000610f1c8383610ef2565b9150826002028217905092915050565b610f3582610910565b67ffffffffffffffff811115610f4e57610f4d610d51565b5b610f588254610d20565b610f63828285610e9f565b600060209050601f831160018114610f965760008415610f84578287015190505b610f8e8582610f10565b865550610ff6565b601f198416610fa486610d80565b60005b82811015610fcc57848901518255600182019150602085019450602081019050610fa7565b86831015610fe95784890151610fe5601f891682610ef2565b8355505b6001600288020188555050505b505050505050565b82818337600083830152505050565b6000611019838561091b565b9350611026838584610ffe565b61102f83610956565b840190509392505050565b6000604082019050818103600083015261105581858761100d565b9050611064602083018461086a565b949350505050565b7f4e6f207265636f72647320796574000000000000000000000000000000000000600082015250565b60006110a2600e8361091b565b91506110ad8261106c565b602082019050919050565b600060208201905081810360008301526110d181611095565b9050919050565b7f4e487b7100000000000000000000000000000000000000000000000000000000600052601160045260246000fd5b600061111282610860565b915061111d83610860565b9250828203905081811115611135576111346110d8565b5b92915050565b7f4e487b7100000000000000000000000000000000000000000000000000000000600052603260045260246000fdfea26469706673582212202212a0a0e5484b8f81611642465816a1e2fae22f7003f66ef37b190614b8d80564736f6c63430008130033","linkReferences":{}},"methodIdentifiers":{"count()":"06661abd","latest()":"52bfe789","owner()":"8da5cb5b","recordHealth(bytes32,string)":"441b2055","recorded(bytes32)":"d6399790","records(uint256)":"34461067","transferOwnership(address)":"f2fde38b"},"id":0}